:100000000C9434000C943E000C943E000C943E0082
:100010000C943E000C943E000C943E000C943E0068
:100020000C943E000C943E000C943E000C943E0058
:100030000C943E000C943E000C943E000C943E0048
:100040000C943E000C943E000C943E000C943E0038
:100050000C943E000C943E000C943E000C943E0028
:100060000C943E000C943E0011241FBECFEFD4E050
:10007000DEBFCDBF0E944B000C9492000C94000098
:100080009BB121E030E002C0220F331F8A95E2F7D6
:1000900029272BB908958FEF8AB981E090E00E945B
:1000A00040002FE784E89EE1215080409040E1F736
:1000B00000C0000082E090E00E9440002FEB8CE541
:1000C00095E1215080409040E1F700C0000081E0C0
:1000D00090E00E94400082E090E00E94400083E0B7
:1000E00090E00E9440002FE784E89EE1215080408C
:1000F0009040E1F700C0000083E090E00E944000E3
:1001000082E090E00E9440002FEB8CE595E12150C9
:1001100080409040E1F700C0000082E090E00E9443
:080120004000BBCFF894FFCFB3
:00000001FF
